{
  "_format": "hh-sol-artifact-1",
  "contractName": "CustomerSign",
  "sourceName": "contracts/TokenSpender.sol",
  "abi": [
    {
      "anonymous": false,
      "inputs": [
        {
          "indexed": true,
          "internalType": "uint256",
          "name": "contractId",
          "type": "uint256"
        },
        {
          "indexed": true,
          "internalType": "address",
          "name": "creator",
          "type": "address"
        },
        {
          "indexed": false,
          "internalType": "string",
          "name": "title",
          "type": "string"
        }
      ],
      "name": "ContractCreated",
      "type": "event"
    },
    {
      "anonymous": false,
      "inputs": [
        {
          "indexed": true,
          "internalType": "uint256",
          "name": "contractId",
          "type": "uint256"
        },
        {
          "indexed": true,
          "internalType": "address",
          "name": "signer",
          "type": "address"
        },
        {
          "indexed": false,
          "internalType": "string",
          "name": "signature",
          "type": "string"
        }
      ],
      "name": "ContractSigned",
      "type": "event"
    },
    {
      "inputs": [
        {
          "internalType": "uint256",
          "name": "",
          "type": "uint256"
        }
      ],
      "name": "contracts",
      "outputs": [
        {
          "internalType": "uint256",
          "name": "id",
          "type": "uint256"
        },
        {
          "internalType": "address",
          "name": "creator",
          "type": "address"
        },
        {
          "internalType": "string",
          "name": "title",
          "type": "string"
        },
        {
          "internalType": "string",
          "name": "contentHash",
          "type": "string"
        },
        {
          "internalType": "string",
          "name": "customerEmail",
          "type": "string"
        },
        {
          "internalType": "uint256",
          "name": "createdAt",
          "type": "uint256"
        },
        {
          "internalType": "uint256",
          "name": "signedAt",
          "type": "uint256"
        },
        {
          "internalType": "bool",
          "name": "isSigned",
          "type": "bool"
        },
        {
          "internalType": "string",
          "name": "signature",
          "type": "string"
        }
      ],
      "stateMutability": "view",
      "type": "function"
    },
    {
      "inputs": [
        {
          "internalType": "string",
          "name": "_title",
          "type": "string"
        },
        {
          "internalType": "string",
          "name": "_contentHash",
          "type": "string"
        },
        {
          "internalType": "string",
          "name": "_customerEmail",
          "type": "string"
        }
      ],
      "name": "createContract",
      "outputs": [
        {
          "internalType": "uint256",
          "name": "",
          "type": "uint256"
        }
      ],
      "stateMutability": "nonpayable",
      "type": "function"
    },
    {
      "inputs": [
        {
          "internalType": "uint256",
          "name": "_contractId",
          "type": "uint256"
        }
      ],
      "name": "getContract",
      "outputs": [
        {
          "internalType": "uint256",
          "name": "id",
          "type": "uint256"
        },
        {
          "internalType": "address",
          "name": "creator",
          "type": "address"
        },
        {
          "internalType": "string",
          "name": "title",
          "type": "string"
        },
        {
          "internalType": "string",
          "name": "contentHash",
          "type": "string"
        },
        {
          "internalType": "string",
          "name": "customerEmail",
          "type": "string"
        },
        {
          "internalType": "uint256",
          "name": "createdAt",
          "type": "uint256"
        },
        {
          "internalType": "uint256",
          "name": "signedAt",
          "type": "uint256"
        },
        {
          "internalType": "bool",
          "name": "isSigned",
          "type": "bool"
        },
        {
          "internalType": "string",
          "name": "signature",
          "type": "string"
        }
      ],
      "stateMutability": "view",
      "type": "function"
    },
    {
      "inputs": [],
      "name": "getContractsCount",
      "outputs": [
        {
          "internalType": "uint256",
          "name": "",
          "type": "uint256"
        }
      ],
      "stateMutability": "view",
      "type": "function"
    },
    {
      "inputs": [
        {
          "internalType": "address",
          "name": "_user",
          "type": "address"
        }
      ],
      "name": "getUserContracts",
      "outputs": [
        {
          "internalType": "uint256[]",
          "name": "",
          "type": "uint256[]"
        }
      ],
      "stateMutability": "view",
      "type": "function"
    },
    {
      "inputs": [
        {
          "internalType": "uint256",
          "name": "_contractId",
          "type": "uint256"
        },
        {
          "internalType": "string",
          "name": "_signature",
          "type": "string"
        }
      ],
      "name": "signContract",
      "outputs": [],
      "stateMutability": "nonpayable",
      "type": "function"
    },
    {
      "inputs": [
        {
          "internalType": "string",
          "name": "",
          "type": "string"
        }
      ],
      "name": "usedContentHashes",
      "outputs": [
        {
          "internalType": "bool",
          "name": "",
          "type": "bool"
        }
      ],
      "stateMutability": "view",
      "type": "function"
    },
    {
      "inputs": [
        {
          "internalType": "address",
          "name": "",
          "type": "address"
        },
        {
          "internalType": "uint256",
          "name": "",
          "type": "uint256"
        }
      ],
      "name": "userContracts",
      "outputs": [
        {
          "internalType": "uint256",
          "name": "",
          "type": "uint256"
        }
      ],
      "stateMutability": "view",
      "type": "function"
    }
  ],
  "bytecode": "0x608060405234801561001057600080fd5b50611af1806100206000396000f3fe608060405234801561001057600080fd5b50600436106100885760003560e01c80639683584f1161005b5780639683584f1461015d578063b789003d1461017b578063de2143d8146101ab578063fea14f5e146101db57610088565b806334c925f01461008d57806337ab2d39146100bd578063474da79a146100ed5780636ebc8c8614610125575b600080fd5b6100a760048036038101906100a29190610e90565b6101f7565b6040516100b49190610f85565b60405180910390f35b6100d760048036038101906100d291906110ed565b61028e565b6040516100e49190611151565b60405180910390f35b61010760048036038101906101029190611198565b6102c4565b60405161011c99989796959493929190611262565b60405180910390f35b61013f600480360381019061013a9190611198565b61055f565b60405161015499989796959493929190611262565b60405180910390f35b6101656108b5565b604051610172919061130b565b60405180910390f35b61019560048036038101906101909190611326565b6108bf565b6040516101a2919061130b565b60405180910390f35b6101c560048036038101906101c09190611366565b6108f0565b6040516101d2919061130b565b60405180910390f35b6101f560048036038101906101f0919061140d565b610c53565b005b6060600160008373ffffffffffffffffffffffffffffffffffffffff1673ffffffffffffffffffffffffffffffffffffffff16815260200190815260200160002080548060200260200160405190810160405280929190818152602001828054801561028257602002820191906000526020600020905b81548152602001906001019080831161026e575b50505050509050919050565b6002818051602081018201805184825260208301602085012081835280955050505050506000915054906101000a900460ff1681565b60006020528060005260406000206000915090508060000154908060010160009054906101000a900473ffffffffffffffffffffffffffffffffffffffff169080600201805461031390611498565b80601f016020809104026020016040519081016040528092919081815260200182805461033f90611498565b801561038c5780601f106103615761010080835404028352916020019161038c565b820191906000526020600020905b81548152906001019060200180831161036f57829003601f168201915b5050505050908060030180546103a190611498565b80601f01602080910402602001604051908101604052809291908181526020018280546103cd90611498565b801561041a5780601f106103ef5761010080835404028352916020019161041a565b820191906000526020600020905b8154815290600101906020018083116103fd57829003601f168201915b50505050509080600401805461042f90611498565b80601f016020809104026020016040519081016040528092919081815260200182805461045b90611498565b80156104a85780601f1061047d576101008083540402835291602001916104a8565b820191906000526020600020905b81548152906001019060200180831161048b57829003601f168201915b5050505050908060050154908060060154908060070160009054906101000a900460ff16908060080180546104dc90611498565b80601f016020809104026020016040519081016040528092919081815260200182805461050890611498565b80156105555780601f1061052a57610100808354040283529160200191610555565b820191906000526020600020905b81548152906001019060200180831161053857829003601f168201915b5050505050905089565b60008060608060606000806000606060008060008c815260200190815260200160002060405180610120016040529081600082015481526020016001820160009054906101000a900473ffffffffffffffffffffffffffffffffffffffff1673ffffffffffffffffffffffffffffffffffffffff1673ffffffffffffffffffffffffffffffffffffffff1681526020016002820180546105fe90611498565b80601f016020809104026020016040519081016040528092919081815260200182805461062a90611498565b80156106775780601f1061064c57610100808354040283529160200191610677565b820191906000526020600020905b81548152906001019060200180831161065a57829003601f168201915b5050505050815260200160038201805461069090611498565b80601f01602080910402602001604051908101604052809291908181526020018280546106bc90611498565b80156107095780601f106106de57610100808354040283529160200191610709565b820191906000526020600020905b8154815290600101906020018083116106ec57829003601f168201915b5050505050815260200160048201805461072290611498565b80601f016020809104026020016040519081016040528092919081815260200182805461074e90611498565b801561079b5780601f106107705761010080835404028352916020019161079b565b820191906000526020600020905b81548152906001019060200180831161077e57829003601f168201915b5050505050815260200160058201548152602001600682015481526020016007820160009054906101000a900460ff161515151581526020016008820180546107e390611498565b80601f016020809104026020016040519081016040528092919081815260200182805461080f90611498565b801561085c5780601f106108315761010080835404028352916020019161085c565b820191906000526020600020905b81548152906001019060200180831161083f57829003601f168201915b5050505050815250509050806000015181602001518260400151836060015184608001518560a001518660c001518760e00151886101000151995099509950995099509950995099509950509193959799909294969850565b6000600354905090565b600160205281600052604060002081815481106108db57600080fd5b90600052602060002001600091509150505481565b600080845111610935576040517f08c379a000000000000000000000000000000000000000000000000000000000815260040161092c90611515565b60405180910390fd5b6000835111610979576040517f08c379a000000000000000000000000000000000000000000000000000000000815260040161097090611581565b60405180910390fd5b60028360405161098991906115dd565b908152602001604051809103902060009054906101000a900460ff16156109e5576040517f08c379a00000000000000000000000000000000000000000000000000000000081526004016109dc90611640565b60405180910390fd5b6000600360008154809291906109fa9061168f565b9190505590506040518061012001604052808281526020013373ffffffffffffffffffffffffffffffffffffffff16815260200186815260200185815260200184815260200142815260200160008152602001600015158152602001604051806020016040528060008152508152506000808381526020019081526020016000206000820151816000015560208201518160010160006101000a81548173ffffffffffffffffffffffffffffffffffffffff021916908373ffffffffffffffffffffffffffffffffffffffff1602179055506040820151816002019081610ae19190611883565b506060820151816003019081610af79190611883565b506080820151816004019081610b0d9190611883565b5060a0820151816005015560c0820151816006015560e08201518160070160006101000a81548160ff021916908315150217905550610100820151816008019081610b589190611883565b509050506001600285604051610b6e91906115dd565b908152602001604051809103902060006101000a81548160ff021916908315150217905550600160003373ffffffffffffffffffffffffffffffffffffffff1673ffffffffffffffffffffffffffffffffffffffff1681526020019081526020016000208190806001815401808255809150506001900390600052602060002001600090919091909150553373ffffffffffffffffffffffffffffffffffffffff16817f53cf7a5a557691ec3125f21b17f28b52370af2328c5edfef5b63ca4edc03ca4087604051610c409190611955565b60405180910390a3809150509392505050565b60008060008481526020019081526020016000209050600073ffffffffffffffffffffffffffffffffffffffff168160010160009054906101000a900473ffffffffffffffffffffffffffffffffffffffff1673ffffffffffffffffffffffffffffffffffffffff1603610cfc576040517f08c379a0000000000000000000000000000000000000000000000000000000008152600401610cf3906119c3565b60405180910390fd5b8060070160009054906101000a900460ff1615610d4e576040517f08c379a0000000000000000000000000000000000000000000000000000000008152600401610d4590611a2f565b60405180910390fd5b6000825111610d92576040517f08c379a0000000000000000000000000000000000000000000000000000000008152600401610d8990611a9b565b60405180910390fd5b60018160070160006101000a81548160ff02191690831515021790555042816006018190555081816008019081610dc99190611883565b503373ffffffffffffffffffffffffffffffffffffffff16837f52ea4f03466ecb6e478b756f8a6e63e9a06048eec55443b64fbef66048d2e9bf84604051610e119190611955565b60405180910390a3505050565b6000604051905090565b600080fd5b600080fd5b600073ffffffffffffffffffffffffffffffffffffffff82169050919050565b6000610e5d82610e32565b9050919050565b610e6d81610e52565b8114610e7857600080fd5b50565b600081359050610e8a81610e64565b92915050565b600060208284031215610ea657610ea5610e28565b5b6000610eb484828501610e7b565b91505092915050565b600081519050919050565b600082825260208201905092915050565b6000819050602082019050919050565b6000819050919050565b610efc81610ee9565b82525050565b6000610f0e8383610ef3565b60208301905092915050565b6000602082019050919050565b6000610f3282610ebd565b610f3c8185610ec8565b9350610f4783610ed9565b8060005b83811015610f78578151610f5f8882610f02565b9750610f6a83610f1a565b925050600181019050610f4b565b5085935050505092915050565b60006020820190508181036000830152610f9f8184610f27565b905092915050565b600080fd5b600080fd5b6000601f19601f8301169050919050565b7f4e487b7100000000000000000000000000000000000000000000000000000000600052604160045260246000fd5b610ffa82610fb1565b810181811067ffffffffffffffff8211171561101957611018610fc2565b5b80604052505050565b600061102c610e1e565b90506110388282610ff1565b919050565b600067ffffffffffffffff82111561105857611057610fc2565b5b61106182610fb1565b9050602081019050919050565b82818337600083830152505050565b600061109061108b8461103d565b611022565b9050828152602081018484840111156110ac576110ab610fac565b5b6110b784828561106e565b509392505050565b600082601f8301126110d4576110d3610fa7565b5b81356110e484826020860161107d565b91505092915050565b60006020828403121561110357611102610e28565b5b600082013567ffffffffffffffff81111561112157611120610e2d565b5b61112d848285016110bf565b91505092915050565b60008115159050919050565b61114b81611136565b82525050565b60006020820190506111666000830184611142565b92915050565b61117581610ee9565b811461118057600080fd5b50565b6000813590506111928161116c565b92915050565b6000602082840312156111ae576111ad610e28565b5b60006111bc84828501611183565b91505092915050565b6111ce81610ee9565b82525050565b6111dd81610e52565b82525050565b600081519050919050565b600082825260208201905092915050565b60005b8381101561121d578082015181840152602081019050611202565b60008484015250505050565b6000611234826111e3565b61123e81856111ee565b935061124e8185602086016111ff565b61125781610fb1565b840191505092915050565b600061012082019050611278600083018c6111c5565b611285602083018b6111d4565b8181036040830152611297818a611229565b905081810360608301526112ab8189611229565b905081810360808301526112bf8188611229565b90506112ce60a08301876111c5565b6112db60c08301866111c5565b6112e860e0830185611142565b8181036101008301526112fb8184611229565b90509a9950505050505050505050565b600060208201905061132060008301846111c5565b92915050565b6000806040838503121561133d5761133c610e28565b5b600061134b85828601610e7b565b925050602061135c85828601611183565b9150509250929050565b60008060006060848603121561137f5761137e610e28565b5b600084013567ffffffffffffffff81111561139d5761139c610e2d565b5b6113a9868287016110bf565b935050602084013567ffffffffffffffff8111156113ca576113c9610e2d565b5b6113d6868287016110bf565b925050604084013567ffffffffffffffff8111156113f7576113f6610e2d565b5b611403868287016110bf565b9150509250925092565b6000806040838503121561142457611423610e28565b5b600061143285828601611183565b925050602083013567ffffffffffffffff81111561145357611452610e2d565b5b61145f858286016110bf565b9150509250929050565b7f4e487b7100000000000000000000000000000000000000000000000000000000600052602260045260246000fd5b600060028204905060018216806114b057607f821691505b6020821081036114c3576114c2611469565b5b50919050565b7f5469746c65206973207265717569726564000000000000000000000000000000600082015250565b60006114ff6011836111ee565b915061150a826114c9565b602082019050919050565b6000602082019050818103600083015261152e816114f2565b9050919050565b7f436f6e74656e7420686173682069732072657175697265640000000000000000600082015250565b600061156b6018836111ee565b915061157682611535565b602082019050919050565b6000602082019050818103600083015261159a8161155e565b9050919050565b600081905092915050565b60006115b7826111e3565b6115c181856115a1565b93506115d18185602086016111ff565b80840191505092915050565b60006115e982846115ac565b915081905092915050565b7f436f6e74656e74206861736820616c7265616479207573656400000000000000600082015250565b600061162a6019836111ee565b9150611635826115f4565b602082019050919050565b600060208201905081810360008301526116598161161d565b9050919050565b7f4e487b7100000000000000000000000000000000000000000000000000000000600052601160045260246000fd5b600061169a82610ee9565b91507fffffffffffffffffffffffffffffffffffffffffffffffffffffffffffffffff82036116cc576116cb611660565b5b600182019050919050565b60008190508160005260206000209050919050565b60006020601f8301049050919050565b600082821b905092915050565b6000600883026117397fffffffffffffffffffffffffffffffffffffffffffffffffffffffffffffffff826116fc565b61174386836116fc565b95508019841693508086168417925050509392505050565b6000819050919050565b600061178061177b61177684610ee9565b61175b565b610ee9565b9050919050565b6000819050919050565b61179a83611765565b6117ae6117a682611787565b848454611709565b825550505050565b600090565b6117c36117b6565b6117ce818484611791565b505050565b5b818110156117f2576117e76000826117bb565b6001810190506117d4565b5050565b601f82111561183757611808816116d7565b611811846116ec565b81016020851015611820578190505b61183461182c856116ec565b8301826117d3565b50505b505050565b600082821c905092915050565b600061185a6000198460080261183c565b1980831691505092915050565b60006118738383611849565b9150826002028217905092915050565b61188c826111e3565b67ffffffffffffffff8111156118a5576118a4610fc2565b5b6118af8254611498565b6118ba8282856117f6565b600060209050601f8311600181146118ed57600084156118db578287015190505b6118e58582611867565b86555061194d565b601f1984166118fb866116d7565b60005b82811015611923578489015182556001820191506020850194506020810190506118fe565b86831015611940578489015161193c601f891682611849565b8355505b6001600288020188555050505b505050505050565b6000602082019050818103600083015261196f8184611229565b905092915050565b7f436f6e747261637420646f6573206e6f74206578697374000000000000000000600082015250565b60006119ad6017836111ee565b91506119b882611977565b602082019050919050565b600060208201905081810360008301526119dc816119a0565b9050919050565b7f436f6e747261637420616c7265616479207369676e6564000000000000000000600082015250565b6000611a196017836111ee565b9150611a24826119e3565b602082019050919050565b60006020820190508181036000830152611a4881611a0c565b9050919050565b7f5369676e61747572652069732072657175697265640000000000000000000000600082015250565b6000611a856015836111ee565b9150611a9082611a4f565b602082019050919050565b60006020820190508181036000830152611ab481611a78565b905091905056fea26469706673582212205bb6649a8cffa62797aa9191a9bedbe31c1d10c41c99fc5d92bf6115168ca6e264736f6c63430008140033",
  "linkReferences": {},
  "deployedLinkReferences": {}
}