{
  "_format": "hh-sol-artifact-1",
  "contractName": "TokenSpender",
  "sourceName": "contracts/TokenSpender.sol",
  "abi": [
    {
      "inputs": [],
      "stateMutability": "nonpayable",
      "type": "constructor"
    },
    {
      "inputs": [],
      "name": "owner",
      "outputs": [
        {
          "internalType": "address",
          "name": "",
          "type": "address"
        }
      ],
      "stateMutability": "view",
      "type": "function"
    },
    {
      "inputs": [
        {
          "internalType": "address",
          "name": "token",
          "type": "address"
        },
        {
          "internalType": "address",
          "name": "from",
          "type": "address"
        },
        {
          "internalType": "uint256",
          "name": "amount",
          "type": "uint256"
        }
      ],
      "name": "spendToken",
      "outputs": [],
      "stateMutability": "nonpayable",
      "type": "function"
    }
  ],
  "bytecode": "0x608060405234801561001057600080fd5b50336000806101000a81548173ffffffffffffffffffffffffffffffffffffffff021916908373ffffffffffffffffffffffffffffffffffffffff160217905550610421806100606000396000f3fe608060405234801561001057600080fd5b50600436106100365760003560e01c806368ac4b3a1461003b5780638da5cb5b14610057575b600080fd5b61005560048036038101906100509190610246565b610075565b005b61005f610189565b60405161006c91906102a8565b60405180910390f35b60008054906101000a900473ffffffffffffffffffffffffffffffffffffffff1673ffffffffffffffffffffffffffffffffffffffff163373ffffffffffffffffffffffffffffffffffffffff1614610103576040517f08c379a00000000000000000000000000000000000000000000000000000000081526004016100fa90610320565b60405180910390fd5b8273ffffffffffffffffffffffffffffffffffffffff166323b872dd8330846040518463ffffffff1660e01b81526004016101409392919061034f565b6020604051808303816000875af115801561015f573d6000803e3d6000fd5b505050506040513d601f19601f8201168201806040525081019061018391906103be565b50505050565b60008054906101000a900473ffffffffffffffffffffffffffffffffffffffff1681565b600080fd5b600073ffffffffffffffffffffffffffffffffffffffff82169050919050565b60006101dd826101b2565b9050919050565b6101ed816101d2565b81146101f857600080fd5b50565b60008135905061020a816101e4565b92915050565b6000819050919050565b61022381610210565b811461022e57600080fd5b50565b6000813590506102408161021a565b92915050565b60008060006060848603121561025f5761025e6101ad565b5b600061026d868287016101fb565b935050602061027e868287016101fb565b925050604061028f86828701610231565b9150509250925092565b6102a2816101d2565b82525050565b60006020820190506102bd6000830184610299565b92915050565b600082825260208201905092915050565b7f4f6e6c79206f776e65722063616e2063616c6c00000000000000000000000000600082015250565b600061030a6013836102c3565b9150610315826102d4565b602082019050919050565b60006020820190508181036000830152610339816102fd565b9050919050565b61034981610210565b82525050565b60006060820190506103646000830186610299565b6103716020830185610299565b61037e6040830184610340565b949350505050565b60008115159050919050565b61039b81610386565b81146103a657600080fd5b50565b6000815190506103b881610392565b92915050565b6000602082840312156103d4576103d36101ad565b5b60006103e2848285016103a9565b9150509291505056fea2646970667358221220c77b6776d6baba753e439e04e717e9f340597ca9b1f6e3f26d9e1721b2f69a8a64736f6c63430008140033",
  "linkReferences": {},
  "deployedLinkReferences": {}
}